{
  "contractName": "PrescriptionNFT",
  "abi": [
    {
      "constant": true,
      "inputs": [
        {
          "name": "",
          "type": "uint256"
        }
      ],
      "name": "prescriptions",
      "outputs": [
        {
          "name": "prescriptionId",
          "type": "uint256"
        },
        {
          "name": "patientAddress",
          "type": "address"
        },
        {
          "name": "medicationName",
          "type": "string"
        },
        {
          "name": "brandName",
          "type": "string"
        },
        {
          "name": "dosageQuantity",
          "type": "uint256"
        },
        {
          "name": "dosageUnit",
          "type": "string"
        },
        {
          "name": "dateFilled",
          "type": "uint256"
        },
        {
          "name": "expirationTime",
          "type": "uint256"
        },
        {
          "name": "owner",
          "type": "address"
        }
      ],
      "payable": false,
      "stateMutability": "view",
      "type": "function"
    },
    {
      "constant": true,
      "inputs": [
        {
          "name": "",
          "type": "address"
        }
      ],
      "name": "doctors",
      "outputs": [
        {
          "name": "",
          "type": "bool"
        }
      ],
      "payable": false,
      "stateMutability": "view",
      "type": "function"
    },
    {
      "constant": true,
      "inputs": [],
      "name": "prescriptionCount",
      "outputs": [
        {
          "name": "",
          "type": "uint256"
        }
      ],
      "payable": false,
      "stateMutability": "view",
      "type": "function"
    },
    {
      "inputs": [],
      "payable": false,
      "stateMutability": "nonpayable",
      "type": "constructor"
    },
    {
      "anonymous": false,
      "inputs": [
        {
          "indexed": true,
          "name": "_patientAddress",
          "type": "address"
        }
      ],
      "name": "prescribedEvent",
      "type": "event"
    },
    {
      "constant": true,
      "inputs": [],
      "name": "getPrescription",
      "outputs": [
        {
          "components": [
            {
              "name": "prescriptionId",
              "type": "uint256"
            },
            {
              "name": "patientAddress",
              "type": "address"
            },
            {
              "name": "medicationName",
              "type": "string"
            },
            {
              "name": "brandName",
              "type": "string"
            },
            {
              "name": "dosageQuantity",
              "type": "uint256"
            },
            {
              "name": "dosageUnit",
              "type": "string"
            },
            {
              "name": "dateFilled",
              "type": "uint256"
            },
            {
              "name": "expirationTime",
              "type": "uint256"
            },
            {
              "name": "owner",
              "type": "address"
            }
          ],
          "name": "",
          "type": "tuple"
        }
      ],
      "payable": false,
      "stateMutability": "view",
      "type": "function"
    },
    {
      "constant": true,
      "inputs": [],
      "name": "getPrescriptionData",
      "outputs": [
        {
          "name": "",
          "type": "uint256"
        },
        {
          "name": "",
          "type": "address"
        },
        {
          "name": "",
          "type": "string"
        },
        {
          "name": "",
          "type": "string"
        },
        {
          "name": "",
          "type": "uint256"
        },
        {
          "name": "",
          "type": "string"
        },
        {
          "name": "",
          "type": "uint256"
        },
        {
          "name": "",
          "type": "uint256"
        },
        {
          "name": "",
          "type": "address"
        }
      ],
      "payable": false,
      "stateMutability": "view",
      "type": "function"
    },
    {
      "constant": false,
      "inputs": [
        {
          "name": "_patientAddress",
          "type": "address"
        },
        {
          "name": "_medicationName",
          "type": "string"
        },
        {
          "name": "_brandName",
          "type": "string"
        },
        {
          "name": "_dosageQuantity",
          "type": "uint256"
        },
        {
          "name": "_dosageUnit",
          "type": "string"
        },
        {
          "name": "_dateFilled",
          "type": "uint256"
        },
        {
          "name": "_expirationTime",
          "type": "uint256"
        },
        {
          "name": "_owner",
          "type": "address"
        }
      ],
      "name": "prescribe",
      "outputs": [],
      "payable": true,
      "stateMutability": "payable",
      "type": "function"
    }
  ],
  "bytecode": "0x608060405234801561001057600080fd5b5061136a806100206000396000f300608060405260043610610077576000357c0100000000000000000000000000000000000000000000000000000000900463ffffffff16806236fa551461007c57806331dfc91b146100985780634c3b9086146100dd578063a9583c2214610108578063b655849814610145578063cb47a08b14610170575b600080fd5b61009660048036036100919190810190610de3565b6101a3565b005b3480156100a457600080fd5b506100bf60048036036100ba9190810190610edd565b6103a5565b6040516100d49998979695949392919061116c565b60405180910390f35b3480156100e957600080fd5b506100f26105fb565b6040516100ff919061108d565b60405180910390f35b34801561011457600080fd5b5061012f600480360361012a9190810190610dba565b6108e3565b60405161013c9190611072565b60405180910390f35b34801561015157600080fd5b5061015a610903565b60405161016791906110af565b60405180910390f35b34801561017c57600080fd5b50610185610909565b60405161019a999897969594939291906110ca565b60405180910390f35b6000808154809291906001019190505550600085101515156101c457600080fd5b6101206040519081016040528060005481526020018973ffffffffffffffffffffffffffffffffffffffff1681526020018881526020018781526020018681526020018581526020018481526020018381526020013373ffffffffffffffffffffffffffffffffffffffff1681525060026000805481526020019081526020016000206000820151816000015560208201518160010160006101000a81548173ffffffffffffffffffffffffffffffffffffffff021916908373ffffffffffffffffffffffffffffffffffffffff16021790555060408201518160020190805190602001906102b4929190610c1e565b5060608201518160030190805190602001906102d1929190610c1e565b506080820151816004015560a08201518160050190805190602001906102f8929190610c1e565b5060c0820151816006015560e082015181600701556101008201518160080160006101000a81548173ffffffffffffffffffffffffffffffffffffffff021916908373ffffffffffffffffffffffffffffffffffffffff1602179055509050508773ffffffffffffffffffffffffffffffffffffffff167ff7e54993f49c4e70c00355fdbae483f2eea02d3526ac66dff052d559a3b090e860405160405180910390a25050505050505050565b60026020528060005260406000206000915090508060000154908060010160009054906101000a900473ffffffffffffffffffffffffffffffffffffffff1690806002018054600181600116156101000203166002900480601f01602080910402602001604051908101604052809291908181526020018280546001816001161561010002031660029004801561047d5780601f106104525761010080835404028352916020019161047d565b820191906000526020600020905b81548152906001019060200180831161046057829003601f168201915b505050505090806003018054600181600116156101000203166002900480601f01602080910402602001604051908101604052809291908181526020018280546001816001161561010002031660029004801561051b5780601f106104f05761010080835404028352916020019161051b565b820191906000526020600020905b8154815290600101906020018083116104fe57829003601f168201915b505050505090806004015490806005018054600181600116156101000203166002900480601f0160208091040260200160405190810160405280929190818152602001828054600181600116156101000203166002900480156105bf5780601f10610594576101008083540402835291602001916105bf565b820191906000526020600020905b8154815290600101906020018083116105a257829003601f168201915b5050505050908060060154908060070154908060080160009054906101000a900473ffffffffffffffffffffffffffffffffffffffff16905089565b610603610c9e565b60026000805481526020019081526020016000206101206040519081016040529081600082015481526020016001820160009054906101000a900473ffffffffffffffffffffffffffffffffffffffff1673ffffffffffffffffffffffffffffffffffffffff1673ffffffffffffffffffffffffffffffffffffffff168152602001600282018054600181600116156101000203166002900480601f01602080910402602001604051908101604052809291908181526020018280546001816001161561010002031660029004801561071d5780601f106106f25761010080835404028352916020019161071d565b820191906000526020600020905b81548152906001019060200180831161070057829003601f168201915b50505050508152602001600382018054600181600116156101000203166002900480601f0160208091040260200160405190810160405280929190818152602001828054600181600116156101000203166002900480156107bf5780601f10610794576101008083540402835291602001916107bf565b820191906000526020600020905b8154815290600101906020018083116107a257829003601f168201915b5050505050815260200160048201548152602001600582018054600181600116156101000203166002900480601f01602080910402602001604051908101604052809291908181526020018280546001816001161561010002031660029004801561086b5780601f106108405761010080835404028352916020019161086b565b820191906000526020600020905b81548152906001019060200180831161084e57829003601f168201915b5050505050815260200160068201548152602001600782015481526020016008820160009054906101000a900473ffffffffffffffffffffffffffffffffffffffff1673ffffffffffffffffffffffffffffffffffffffff1673ffffffffffffffffffffffffffffffffffffffff1681525050905090565b60036020528060005260406000206000915054906101000a900460ff1681565b60005481565b600080606080600060606000806000600260008054815260200190815260200160002060000154600260008054815260200190815260200160002060010160009054906101000a900473ffffffffffffffffffffffffffffffffffffffff16600260008054815260200190815260200160002060020160026000805481526020019081526020016000206003016002600080548152602001908152602001600020600401546002600080548152602001908152602001600020600501600260008054815260200190815260200160002060060154600260008054815260200190815260200160002060070154600260008054815260200190815260200160002060080160009054906101000a900473ffffffffffffffffffffffffffffffffffffffff16868054600181600116156101000203166002900480601f016020809104026020016040519081016040528092919081815260200182805460018160011615610100020316600290048015610ac25780601f10610a9757610100808354040283529160200191610ac2565b820191906000526020600020905b815481529060010190602001808311610aa557829003601f168201915b50505050509650858054600181600116156101000203166002900480601f016020809104026020016040519081016040528092919081815260200182805460018160011615610100020316600290048015610b5e5780601f10610b3357610100808354040283529160200191610b5e565b820191906000526020600020905b815481529060010190602001808311610b4157829003601f168201915b50505050509550838054600181600116156101000203166002900480601f016020809104026020016040519081016040528092919081815260200182805460018160011615610100020316600290048015610bfa5780601f10610bcf57610100808354040283529160200191610bfa565b820191906000526020600020905b815481529060010190602001808311610bdd57829003601f168201915b50505050509350985098509850985098509850985098509850909192939495969798565b828054600181600116156101000203166002900490600052602060002090601f016020900481019282601f10610c5f57805160ff1916838001178555610c8d565b82800160010185558215610c8d579182015b82811115610c8c578251825591602001919060010190610c71565b5b509050610c9a9190610d17565b5090565b6101206040519081016040528060008152602001600073ffffffffffffffffffffffffffffffffffffffff168152602001606081526020016060815260200160008152602001606081526020016000815260200160008152602001600073ffffffffffffffffffffffffffffffffffffffff1681525090565b610d3991905b80821115610d35576000816000905550600101610d1d565b5090565b90565b6000610d4882356112b3565b905092915050565b600082601f8301121515610d6357600080fd5b8135610d76610d718261123b565b61120e565b91508082526020830160208301858383011115610d9257600080fd5b610d9d8382846112dd565b50505092915050565b6000610db282356112d3565b905092915050565b600060208284031215610dcc57600080fd5b6000610dda84828501610d3c565b91505092915050565b600080600080600080600080610100898b031215610e0057600080fd5b6000610e0e8b828c01610d3c565b985050602089013567ffffffffffffffff811115610e2b57600080fd5b610e378b828c01610d50565b975050604089013567ffffffffffffffff811115610e5457600080fd5b610e608b828c01610d50565b9650506060610e718b828c01610da6565b955050608089013567ffffffffffffffff811115610e8e57600080fd5b610e9a8b828c01610d50565b94505060a0610eab8b828c01610da6565b93505060c0610ebc8b828c01610da6565b92505060e0610ecd8b828c01610d3c565b9150509295985092959890939650565b600060208284031215610eef57600080fd5b6000610efd84828501610da6565b91505092915050565b610f0f8161127d565b82525050565b610f1e8161129d565b82525050565b6000610f2f82611272565b808452610f438160208601602086016112ec565b610f4c8161131f565b602085010191505092915050565b6000610f6582611267565b808452610f798160208601602086016112ec565b610f828161131f565b602085010191505092915050565b600061012083016000830151610fa96000860182611063565b506020830151610fbc6020860182610f06565b5060408301518482036040860152610fd48282610f5a565b91505060608301518482036060860152610fee8282610f5a565b91505060808301516110036080860182611063565b5060a083015184820360a086015261101b8282610f5a565b91505060c083015161103060c0860182611063565b5060e083015161104360e0860182611063565b50610100830151611058610100860182610f06565b508091505092915050565b61106c816112a9565b82525050565b60006020820190506110876000830184610f15565b92915050565b600060208201905081810360008301526110a78184610f90565b905092915050565b60006020820190506110c46000830184611063565b92915050565b6000610120820190506110e0600083018c611063565b6110ed602083018b610f06565b81810360408301526110ff818a610f24565b905081810360608301526111138189610f24565b90506111226080830188611063565b81810360a08301526111348187610f24565b905061114360c0830186611063565b61115060e0830185611063565b61115e610100830184610f06565b9a9950505050505050505050565b600061012082019050611182600083018c611063565b61118f602083018b610f06565b81810360408301526111a1818a610f5a565b905081810360608301526111b58189610f5a565b90506111c46080830188611063565b81810360a08301526111d68187610f5a565b90506111e560c0830186611063565b6111f260e0830185611063565b611200610100830184610f06565b9a9950505050505050505050565b6000604051905081810181811067ffffffffffffffff8211171561123157600080fd5b8060405250919050565b600067ffffffffffffffff82111561125257600080fd5b601f19601f8301169050602081019050919050565b600081519050919050565b600081519050919050565b600073ffffffffffffffffffffffffffffffffffffffff82169050919050565b60008115159050919050565b6000819050919050565b600073ffffffffffffffffffffffffffffffffffffffff82169050919050565b6000819050919050565b82818337600083830152505050565b60005b8381101561130a5780820151818401526020810190506112ef565b83811115611319576000848401525b50505050565b6000601f19601f83011690509190505600a265627a7a72305820aafebead0088601db5474e4e9f7481f96f9f262716230fe7efe14d0c038fac976c6578706572696d656e74616cf50037",
  "source": "pragma solidity ^0.4.18;\npragma experimental ABIEncoderV2;\nimport \"./SafeMath.sol\";\n\n/**\n * Notes: \n * @title PrescriptionNFT\n * Non-Fungible Token implementation of pharmaceutical prescriptions\n *\n */\ncontract PrescriptionNFT {\n  //using SafeMath for uint256\n\n  struct Prescription {\n\n    // Unique Id of the prescription\n    uint256 prescriptionId;\n\n    // Wallet address of the patient\n    address patientAddress;\n\n    // Scientific name of the medicine\n    string medicationName;\n\n    // Brand name of the medicine\n    string brandName;\n\n    // Quantity of dosage\n    uint256 dosageQuantity;\n\n    // Unit for the dosage (mg, `ml, etc)\n    string dosageUnit;\n\n    // Epoch time when the preciption was given (mint time)\n    uint256 dateFilled;\n\n    //Epoch expiration date (When is this prescription no longer valid)\n    uint256 expirationTime;\n\n    // Wallet address of the owner\n    address owner;\n  }\n\n  // Store Prescription count to be used as Id for mapping\n  uint256 public prescriptionCount;\n\n  // Total number of token that have been minted\n  uint256 private totalTokens;  \n\n  /*\n   *  Mappings \n   */\n\n  // Map of the prescriptions created Map<tokenId, Prescription>  \n  mapping (uint256 => Prescription) public prescriptions;\n\n  // Store Doctor accounts that have prescribed\n  mapping(address => bool) public doctors;\n \n  /**\n   * @dev NFT Constructor\n   * Create a new PrescriptionNFT \n   */\n\n  function PrescriptionNFT() public {\n  }\n\n /*\n * Doctor methods\n */\n\n  // Prescribed event call\n  event prescribedEvent (\n    address indexed _patientAddress\n  );\n\n  function getPrescription() public view returns (Prescription) {\n    return prescriptions[prescriptionCount];\n  }\n\n  function getPrescriptionData() public view returns (uint256, address, string, string, uint256, string, uint256, uint256, address) {\n    return (\n      prescriptions[prescriptionCount].prescriptionId, \n      prescriptions[prescriptionCount].patientAddress, \n      prescriptions[prescriptionCount].medicationName, \n      prescriptions[prescriptionCount].brandName,\n      prescriptions[prescriptionCount].dosageQuantity,\n      prescriptions[prescriptionCount].dosageUnit,\n      prescriptions[prescriptionCount].dateFilled,\n      prescriptions[prescriptionCount].expirationTime,\n      prescriptions[prescriptionCount].owner\n    );\n  }\n\n  /**\n  * @dev Fill the Prescription with the given tokenId. This means that the user will \n  *   transfer their Prescription tokens to the pharmacy address\n  * @param _patientAddress wallet address of the patient to recieve the prescription tokens\n  * @param _medicationName medication name\n  * @param _brandName medication brand\n  * @param _dosageQuantity payload per pill\n  * @param _dosageUnit unit for payload per pill (mg, ml, etc)\n  * @param _dateFilled epoch date when the token was minted\n  * @param _expirationTime epoch date when the token expires\n  * @param _owner msg.sender of the contract\n  */\n\n  function prescribe(\n    address _patientAddress, \n    string _medicationName,\n    string _brandName,\n    uint256 _dosageQuantity,\n    string _dosageUnit,\n    uint256 _dateFilled,\n    uint256 _expirationTime,\n    address _owner) public payable {\n      \n      // We will start the first tokenId at 0 and essentially treat it as an index\n      // The next token id will just be = to the # of tokens \n      //uint256 newTokenId = totalTokens;\n\n      // Increment count of prescriptions, will be used as unique identifier\n      prescriptionCount++;\n\n      // Require non-negative dosage quantity\n      require(_dosageQuantity >= 0);\n\n      // Create a new Prescription and add to mapping\n      prescriptions[prescriptionCount] = Prescription(\n        prescriptionCount,\n        _patientAddress,\n        _medicationName,\n        _brandName,\n        _dosageQuantity,\n        _dosageUnit,\n        _dateFilled,\n        _expirationTime,\n        msg.sender\n      );\n\n      // Trigger prescribed event\n      prescribedEvent(_patientAddress);\n\n  }\n\n}\n",
  "sourcePath": "/Users/uziminhas/dev/pharma_react_master/contracts/PrescriptionNFT.sol",
  "compiler": {
    "name": "solc",
    "version": "0.4.24+commit.e67f0147.Emscripten.clang"
  },
  "schemaVersion": "2.0.1",
  "updatedAt": "2018-08-28T05:14:25.883Z"
}